:020000040800F2
:100000000000012099290008F1060008F306000805
:10001000F5060008F7060008F906000800000000D1
:100020000000000000000000000000003115000882
:10003000FB06000800000000D11500081516000896
:10004000E1290008E1290008E1290008E129000868
:10005000E1290008E1290008E1290008E129000858
:10006000E1290008E1290008E1290008E129000848
:10007000E1290008E1290008E1290008E129000838
:10008000E1290008E1290008E1290008E129000828
:10009000E1290008E1290008E1290008E129000818
:1000A000E1290008E1290008E1290008E129000808
:1000B000E1290008E1290008E1290008E1290008F8
:1000C000E1290008E1290008E1290008E1290008E8
:1000D000E1290008E1290008E1290008E1290008D8
:1000E000E1290008E1290008E1290008E1290008C8
:1000F000E1290008E1290008E1290008E1290008B8
:10010000E1290008E1290008E1290008E1290008A7
:10011000E1290008E1290008E1290008E129000897
:10012000E1290008E1290008E1290008E129000887
:1001300000000000000000000000000000000000BF
:1001400000000000000000000000000000000000AF
:10015000000000000000000000000000000000009F
:10016000000000000000000000000000000000008F
:10017000000000000000000000000000000000007F
:10018000000000000000000000000000000000006F
:10019000000000000000000000000000000000005F
:1001A000000000000000000000000000000000004F
:1001B000000000000000000000000000000000003F
:1001C000000000000000000000000000000000002F
:1001D000000000000000000000000000000000001F
:0401E0005FF8E0F1F3
:1001F0000348044B834202D0034B03B118477047B6
:100200007800002078000020000000000548064922
:10021000091A891001EBD171491002D0034B03B1C7
:100220001847704778000020780000200000000088
:1002300010B5064C237843B9FFF7DAFF044B13B12E
:100240000448AFF300800123237010BD7800002024
:1002500000000000E429000808B5044B1BB1044964
:100260000448AFF30080BDE80840CFE7000000007D
:100270007C000020E429000870B50D4E0D4D761B62
:10028000B61006D00024013455F8043B9847A64226
:10029000F9D1094E094D02F0A5FB761BB61006D028
:1002A0000024013455F8043B9847A642F9D170BDAB
:1002B0005C2A00085C2A0008602A00085C2A000802
:1002C000024B0146186800F0D5B800BF00000020BE
:1002D000024B0146186800F079B800BF000000200A
:1002E000844641EA000313F0030349D1403A23D383
:1002F0000B6803604B6843608B688360CB68C360A6
:100300000B6903614B6943618B698361CB69C3618D
:100310000B6A03624B6A43628B6A8362CB6AC36275
:100320000B6B03634B6B43638B6B8363CB6BC3635D
:1003300040304031403ADBD230320BD30B6803609F
:100340004B6843608B688360CB68C36010301031AA
:10035000103AF3D20C3205D351F8043B40F8043B79
:10036000043AF9D2043208D0D2071CBF11F8013B7D
:1003700000F8013B01D30B8803806046704700BF43
:10038000082A13D38B07B1D010F00303AED0C3F10A
:100390000403D21ADB071CBF11F8013B00F8013B34
:1003A000A4D331F8023B20F8023B9FE7043AD9D3AB
:1003B000013A11F8013B00F8013BF9D20B780370C8
:1003C0004B7843708B78837060467047002934D037
:1003D00038B551F8043C0C1F002BB8BFE418054693
:1003E00000F0BEF8224B1A682AB1A2420DD921684A
:1003F0006018824235D0626028461C60BDE83840F3
:1004000000F0B0B8A34203D81A465368002BF9D1C4
:1004100011685018A04218D010D821686018834283
:1004200003BFD3E900030918C4E9001363605460F3
:100430002846BDE8384000F095B870470C232846A0
:100440002B60BDE8384000F08DB82068014450189A
:1004500083421160ECD1D3E900030144C2E90013E7
:10046000E6E7D2E900020144C4E90012C4E700BF94
:1004700094000020F8B5CD1C25F0030508350C2D9F
:1004800038BF0C25002D06463ADBA94238D82A4F42
:1004900000F066F83A6852B113685B1B04D433E08D
:1004A00023685B1B25D522465468002CF8D1796857
:1004B00000293BD02946304600F040F8431C2AD0A2
:1004C000C41C24F00304A04205D0211A304600F0D9
:1004D00035F801301FD02560304600F043F804F1B4
:1004E0000B0020F00700231DC31A01D05A42E2502E
:1004F000F8BD0B2B0BD8A24215D063685360EBE715
:100500000C2300203360F8BD0B2B0BD9144623605D
:100510001C442560E0E70C233046336000F022F8ED
:100520000020F8BD54683C601446D5E7304600F022
:1005300005F87860BEE700BF9400002038B50023BE
:10054000064C05460846236000F00EF8431C00D018
:1005500038BD2368002BFBD02B6038BD680200201B
:10056000704700BF704700BF044A05491368002B5D
:1005700008BF0B4618441060184670479C000020C6
:100580007002002000B583B001F0EEFA0190402126
:10059000034800F019FF322101A801F04FFCF6E7F3
:1005A0000010014030B587B00024029403940494F5
:1005B0000594134B9A6942F010029A619A6902F00D
:1005C00010020092009A9A6942F004029A619B69B3
:1005D00003F004030193019B0A4D22464021284663
:1005E00000F0ECFE402302930123039304940223C2
:1005F000059302A9284600F0E7FD07B030BD00BF13
:10060000001002400010014072B6FEE700B597B03E
:1006100000230E93119312930793089309930A935F
:100620000B9301930293039304930593069305237D
:100630000C934FF480330D9301220F9210920222FB
:10064000139214934FF4E01315930CA800F09CF947
:10065000C8B90F23079302210891002309934FF48F
:1006600080620A920B9307A800F0CEFB68B90123C1
:1006700001934FF48073029301A800F08FFC30B90E
:1006800017B05DF804FBFFF7BFFFFFF7BDFFFFF7F3
:10069000BBFF000008B50748074B03604FF0FF336E
:1006A00043604FF48073836000F0B8F800B908BD70
:1006B000FFF7AAFF100200200028004000B583B019
:1006C00000F034F9FFF7A2FFFFF76CFFFFF7E2FF3E
:1006D000002301930122009280220349034801F084
:1006E000C3F901F0F3F9FEE7242A000885050008A4
:1006F000FEE7FEE7FEE7FEE7FEE7704782B00E4B3F
:100700009A6942F001029A619A6902F0010200922C
:10071000009ADA6942F08052DA61DB6903F08053B3
:100720000193019B054A536823F0E06343F0007393
:10073000536002B0704700BF00100240000001404B
:1007400002680C4B9A4200D0704700B583B000F0AD
:10075000A1FE094BDA6942F00062DA61DB6903F05D
:1007600000630193019B054B01221A6003B05DF801
:1007700004FB00BF00280040001002403C0442423D
:1007800038B5044600F0E4F8054623685A6812F0CC
:10079000200F07D100F0DCF8401BB0F57A7FF4D9C8
:1007A000032004E05A6842F010025A60002038BD6D
:1007B00038B504460268536823F01003536000F014
:1007C000C7F8054623685B6813F0200F07D100F0D7
:1007D000BFF8401BB0F57A7FF4D9032000E0002079
:1007E00038BDC0B138B504460268536823F0080329
:1007F000536000F0ADF8054623685B6813F0080FFE
:1008000007D100F0A5F8401BB0F57A7FF4D903209A
:1008100000E0002038BD01207047000000285AD0B9
:1008200010B50446437C53B1022363742046FFF79E
:10083000D8FF40B1042363740123184610BD03742C
:10084000FFF77EFFF0E72046FFF79AFF002830D140
:100850002268536823F007035360A36823B11F4A3B
:10086000136B23F0010313631C4AD36A23F46073F0
:10087000A1680B43D3626268B2F1FF3F1DD02168CB
:100880008B6823F00F0343EA12438B602168CB6827
:100890001B0C1B0492B21343CB602046FFF788FF6A
:1008A0000346A0B90022E27301226273A27362744C
:1008B000C3E7042363740123BFE7012000F0F8FBC2
:1008C00008B1421EDBE7042363740123B5E7042368
:1008D00063740123B1E7012318467047006C0040A0
:1008E00010B504460E4B18784FF47A73B3FBF0F34F
:1008F0000C4A1068B0FBF3F000F0B6FD68B90F2C9D
:1009000001D901200AE0002221464FF0FF3000F01B
:1009100077FD054B1C60002000E0012010BD00BFEA
:10092000640000206C0000206800002008B5074A21
:10093000136843F010031360032000F04FFD0F20F5
:10094000FFF7CEFFFFF7DAFE002008BD00200240CF
:10095000014B1868704700BF2402002082B0084B8A
:100960001B68084AA2FB03235B0A00FB03F001900B
:1009700000BF019B5A1E0192002BF9D102B07047B3
:100980006C000020D34D6210002800F0F58170B596
:1009900082B00446036813F0010F2CD0AB4B5B68A8
:1009A00003F00C03042B1DD0A84B5B6803F00C0371
:1009B000082B12D06368B3F5803F41D0002B55D18E
:1009C00003F1804303F504331A6822F480321A607D
:1009D0001A6822F480221A6037E09C4B5B6813F49B
:1009E000803FE7D0994B1B6813F4003F03D0636846
:1009F000002B00F0C381236813F0020F76D0934BD5
:100A00005B6813F00C0F5FD0904B5B6803F00C0336
:100A1000082B54D02369002B00F08A808C4B0122D4
:100A20001A60FFF795FF0546884B1B6813F0020F0D
:100A300075D1FFF78DFF401B0228F5D90320A0E1F7
:100A4000824A136843F480331360636843B3FFF74B
:100A50007FFF05467D4B1B6813F4003FCBD1FFF7AA
:100A600077FF401B6428F5D903208AE1B3F5A02F56
:100A700009D0764B1A6822F480321A601A6822F480
:100A800080221A60E1E703F18043A3F53C331A6842
:100A900042F480221A601A6842F480321A60D4E765
:100AA000FFF756FF0546694B1B6813F4003FA2D0C1
:100AB000FFF74EFF401B6428F5D9032061E1634B2B
:100AC0005B6813F4803FA5D1604B1B6813F0020FE5
:100AD00004D02369012B01D0012052E15B4A136845
:100AE00023F0F803616943EAC1031360236813F03C
:100AF000080F32D0A369002B5BD0564B01221A603D
:100B0000FFF726FF0546514B5B6A13F0020F21D118
:100B1000FFF71EFF401B0228F5D9032031E14B4AA5
:100B2000136823F0F803616943EAC1031360DDE74A
:100B3000474B00221A60FFF70BFF0546434B1B682B
:100B400013F0020FD2D0FFF703FF401B0228F5D9A4
:100B5000032016E10120FFF701FF236813F0040FC3
:100B600000F09880394BDB6913F0805F33D1374B4D
:100B7000DA6942F08052DA61DB6903F08053019355
:100B8000019B0125344B1B6813F4807F25D0E3685B
:100B9000012B36D0002B4CD103F1804303F50433F5
:100BA0001A6A22F001021A621A6A22F004021A6218
:100BB0002CE0284B00221A60FFF7CAFE0546234BA3
:100BC0005B6A13F0020FC8D0FFF7C2FE401B022879
:100BD000F5D90320D5E00025D4E71F4A136843F474
:100BE00080731360FFF7B4FE06461B4B1B6813F4BB
:100BF000807FCCD1FFF7ACFE801B6428F5D90320A1
:100C0000BFE0124A136A43F001031362E3687BB347
:100C1000FFF79EFE06460D4B1B6A13F0020F38D1FC
:100C2000FFF796FE801B41F288339842F3D90320E8
:100C3000A7E0052B12D0054B1A6A22F001021A62B6
:100C40001A6A22F004021A62E0E700BF00100240B4
:100C50000000424280044242007000404C4B1A6A3D
:100C600042F004021A621A6A42F001021A62CDE7E7
:100C7000FFF76EFE0646464B1B6A13F0020F08D0C4
:100C8000FFF766FE801B41F288339842F3D90320B8
:100C900077E0E5B9E369002B72D03D4A526802F073
:100CA0000C02082A56D0022B17D03A4B00221A60A9
:100CB000FFF74EFE0446364B1B6813F0007F47D00B
:100CC000FFF746FE001B0228F5D9032059E0304A01
:100CD000D36923F08053D361DCE72E4B00221A60E6
:100CE000FFF736FE05462A4B1B6813F0007F06D03F
:100CF000FFF72EFE401B0228F5D9032041E0236AAE
:100D0000B3F5803F1AD022494B6823F47413226A4A
:100D1000606A024313434B601E4B01221A60FFF7C7
:100D200017FE04461A4B1B6813F0007F0ED1FFF725
:100D30000FFE001B0228F5D9032022E0144A536855
:100D400023F40033A1680B435360DCE7002018E074
:100D5000002016E0012B16D00D4B5B6803F48031A8
:100D6000226A914201D001200BE003F47013626A01
:100D700093420AD0012004E001207047012000E0E6
:100D8000002002B070BD0120FBE70020F9E700BFA2
:100D9000001002406000424210B487B0164C94E844
:100DA0000F000DF1180C0CE90F00238AADF8043088
:100DB000124B5B6803F00C02082A1AD1C3F383427A
:100DC000624412F8102C13F4803F05D10C4800FB4C
:100DD00002F007B010BC7047084B5B68C3F3404398
:100DE000634413F8143C074800FB02F0B0FBF3F037
:100DF000EFE70448EDE700BFFC29000800100240BF
:100E000000093D0000127A00002800F0A38070B5B0
:100E10000446524B1B6803F007038B420CD24F4A27
:100E2000136823F007030B431360136803F00703F1
:100E30008B4201D0012070BD236813F0020F17D040
:100E400013F0040F04D0464A536843F4E063536040
:100E5000236813F0080F04D0414A536843F46053E9
:100E600053603F4A536823F0F003A0680343536084
:100E70000D46236813F0010F31D06368012B20D099
:100E8000022B25D0364A126812F0020F64D0344982
:100E90004A6822F0030213434B60FFF759FD0646F0
:100EA0002F4B5B6803F00C036268B3EB820F16D024
:100EB000FFF74EFD801B41F288339842F0D90320A2
:100EC000B9E7274A126812F4003FE0D10120B2E7E7
:100ED000234A126812F0007FD9D10120ABE71F4BE3
:100EE0001B6803F00703AB420CD91C4A136823F0BC
:100EF00007032B431360136803F00703AB4201D0D1
:100F0000012098E7236813F0040F06D0144A5368B1
:100F100023F4E063E1680B435360236813F0080F88
:100F200007D00F4A536823F46053216943EAC10391
:100F30005360FFF731FF0A4B5B68C3F30313094AA1
:100F4000D35CD840084B1860084B1868FFF7C8FC02
:100F5000002070E70120704701206CE7002002406C
:100F6000001002402C2A00086C00002068000020BD
:100F7000014B1868704700BF6C00002008B5FFF7F0
:100F8000F7FF044B5B68C3F3C223034AD35CD8402A
:100F900008BD00BF001002403C2A000870B582B0B6
:100FA0000446036813F0010F34D03E4BDB6913F0A5
:100FB000805F48D13B4BDA6942F08052DA61DB69ED
:100FC00003F080530193019B0125374B1B6813F4F9
:100FD000807F3AD0334B1B6A13F4407311D06268A0
:100FE00002F440729A420CD02E4A136A23F44070E5
:100FF0002E4901260E6000260E60106213F0010FCC
:1010000037D1284A136A23F4407361680B43136293
:10101000002D3FD1236813F0020F06D0214A5368F8
:1010200023F44043A1680B435360236813F0100F6F
:1010300035D01C4A536823F4800361690B43536025
:10104000002002B070BD0025BFE7174A136843F4C3
:1010500080731360FFF77CFC0646134B1B6813F488
:10106000807FB7D1FFF774FC801B6428F5D903207B
:10107000E7E7FFF76DFC06460A4B1B6A13F0020F09
:10108000BFD1FFF765FC801B41F288339842F3D94A
:101090000320D6E7D36923F08053D361BAE7002059
:1010A000CFE700BF00100240007000404004424201
:1010B00030B587B005463F4C94E80F000DF1180C91
:1010C0000CE90F00238AADF80430681E0F2866D89B
:1010D000DFE800F0395A6532656565366565656536
:1010E00065656508344B5A681B6813F0807F58D0DB
:1010F000C2F3834306A90B4413F8100C12F4803F8B
:1011000016D02D4B5B68C3F340430B4413F8142CEB
:101110002A4BB3FBF2F300FB03F0274B5B6813F49D
:10112000800F0BD14000264BA3FB0030400805E0A8
:10113000244B03FB00F0F0E7FFF72EFE07B030BDB5
:10114000FFF72AFEFAE71C4B1B6A40F202321A40F4
:10115000B2F5817F27D003F44073B3F5007F04D04C
:10116000B3F5407F09D00020E8E7134A526A12F035
:10117000020FF5D049F64040E0E70F4B1B6813F42F
:10118000003F13D10020D9E7FFF7F8FE0A4B5B6858
:10119000C3F3813301335B00B0FBF3F0CEE70020F3
:1011A000CCE70020CAE74FF40040C7E74FF22440E5
:1011B000C4E700BF102A00080010024000127A00A5
:1011C000ABAAAAAA00093D00F0B482B000263246BC
:1011D000ABE0002D63D0012D00D1CE68FF2B72D87B
:1011E0008446FF2B72D89500DCF800400F27AF40F3
:1011F00024EA070406FA05F52C43CCF800404C68B5
:1012000014F0805F00F09080664CA56945F0010500
:10121000A561A46904F001040194019C9508AF1C28
:10122000614C54F827C002F00304A7000F24BC400F
:101230002CEA040C5D4CA0424ED004F58064A04220
:1012400000F08C8004F58064A04200F0898004F5F1
:101250008064A04200F0868004F58064A04200F023
:10126000838004F58064A04234D0062435E0504FDA
:10127000BD4214D00BD94F4FBD4210D007F5803777
:10128000BD420CD0A7F58017BD42A7D107E0A7F556
:101290008017BD4203D007F58037BD429ED18D68CF
:1012A0007DB1012D08D04461082697E7CE68083645
:1012B00094E7CE680C3691E7046108268EE7002695
:1012C0008CE704268AE700F1040C8AE7A2F10805FE
:1012D000AD0089E7052400E00024BC4044EA0C048A
:1012E0000235314F47F825404C6814F4803F3DD01B
:1012F000314D2C681C432C604C6814F4003F3BD0EB
:101300002D4D6C681C436C604C6814F4801F39D000
:10131000294DAC681C43AC604C6814F4001F37D0F6
:10132000254DEC682343EB6001320B6833FA02F47D
:1013300034D00124944023409C42F5D14D68122DB5
:10134000B7D094D8022DB1D07FF643AF032DB6D0DD
:10135000112D7FF443AFCE6804363FE70124BCE78C
:101360000224BAE70324B8E70424B6E7124D2C6838
:1013700024EA03042C60BFE70F4D6C6824EA0304E1
:101380006C60C1E70C4DAC6824EA0304AC60C3E7B1
:10139000094DEC6824EA0303EB60C5E702B0F0BC3A
:1013A000704700BF001002400000014000080140EB
:1013B00000002110000031100004014012B909049E
:1013C0000161704701617047C36801EA030221EAC5
:1013D000030141EA0241016170470000074AD368F6
:1013E00023F4E0631B041B0C000200F4E0601843CC
:1013F00040F0BF6040F40030D060704700ED00E086
:1014000030B4174BDB68C3F30223C3F10704042C89
:1014100028BF04241D1D062D18D9033B4FF0FF35AE
:1014200005FA04F421EA0401994005FA03F322EADB
:101430000303194300280BDB0901C9B200F1604026
:1014400000F5614080F8001330BC70470023E5E7E9
:1014500000F00F000901C9B2024B1954F4E700BFB4
:1014600000ED00E014ED00E00138B0F1807F0AD219
:10147000064B5860064AF02182F82310002098603D
:1014800007221A6070470120704700BF10E000E09B
:1014900000ED00E0014B01221A60704720000E426F
:1014A0007047000082B0002301930D4B1B68B3F11D
:1014B000FF3F08D04FF0500383F31188BFF36F8FC5
:1014C000BFF34F8FFEE74FF0500383F31188BFF354
:1014D0006F8FBFF34F8F019B002BFCD002B0704782
:1014E0007000002006480068006880F3088862B633
:1014F00061B6BFF34F8FBFF36F8F00DF00BF0000F7
:1015000008ED00E04FF0807340F8043C21F0010149
:1015100040F8081C034B40F80C3C40F8202C4038A5
:10152000704700BFA5140008000000000000000084
:10153000074B19680868B0E8F00F80F30988BFF31B
:101540006F8F4FF0000080F311884EF00D0E704742
:10155000A80000204FF0500383F31188BFF36F8F72
:10156000BFF34F8F0A4A136801331360012B00D079
:101570007047084B1B6813F0FF0FF9D04FF0500372
:1015800083F31188BFF36F8FBFF34F8FFEE700BF68
:101590007000002004ED00E0094B1B6843B94FF0D8
:1015A000500383F31188BFF36F8FBFF34F8FFEE7B4
:1015B000013B034A13600BB983F31188704700BFE6
:1015C000700000200000000000000000000000008B
:1015D000EFF30980BFF36F8F0D4B1A6820E9F00F0E
:1015E00010602DE908404FF0500080F3118800F0A2
:1015F0007DFC4FF0000080F31188BDE808401968B9
:101600000868B0E8F00F80F30988BFF36F8F704768
:10161000A800002008B54FF0500383F31188BFF3F2
:101620006F8FBFF34F8F00F0A5FA18B1034B4FF047
:1016300080521A60002383F3118808BD04ED00E096
:10164000084A0023136008490B60084B1B680849CF
:10165000A1FB03135B09013B06490B6007231360E1
:10166000704700BF10E000E018E000E06C000020D0
:101670001F85EB5114E000E010B582B0274B1A78BB
:10168000D2B20192FF221A701B78DBB28DF80330C0
:101690009DF8033003F05003214A1370214B0722B9
:1016A0001A6009E01F4A1368013B13609DF803307C
:1016B0005B00DBB28DF803309DF8033013F0800F30
:1016C000F0D1184B1B68032B08D04FF0500383F365
:1016D0001188BFF36F8FBFF34F8FFEE71B0203F438
:1016E000E063104A1360019BDBB20C4A13700E4B8F
:1016F0001A6842F470021A601A6842F070421A6066
:10170000FFF79EFF0024094B1C60FFF7EBFE00F083
:10171000EDFBFFF7C7FE204602B010BD00E400E07D
:10172000A0000020A400002020ED00E070000020B8
:10173000074B1B681B6833B1054B1B68DB681A68D5
:10174000044B1A607047034B4FF0FF321A6070472A
:10175000AC0000208001002010B50446006B01F0B1
:101760000EF9204601F00BF910BD2DE9F047089D58
:10177000DDF824800A9C266B02F18042013A06EBD8
:10178000820626F00706D1B10F4600220F2A08D89C
:1017900017F802C0A11881F834C0B95C09B1013250
:1017A000F4E7002284F84320062D0CD94FF05003B3
:1017B00083F31188BFF36F8FBFF34F8FFEE70022D3
:1017C00084F83420F0E799460746E56265644FF0F7
:1017D000000AC4F848A0201D01F094F804F1180094
:1017E00001F090F82461C5F10705A5616462C4F8B1
:1017F0004CA084F850A04A4639463046FFF782FE96
:101800002060B8F1000F01D0C8F80040BDE8F087B3
:1018100038B5002407E004EB840293000E48184416
:1018200001F065F80134062CF5D90C4D284601F07D
:101830005EF80B4C204601F05AF80A4801F057F8C0
:10184000094801F054F8094801F051F8084B1D60AF
:10185000084B1C6038BD00BFB400002054010020BC
:10186000680100208C010020B8010020A4010020A4
:10187000AC000020B000002038B50446FFF76AFE37
:10188000284A136801331360274B1B685BB1274B51
:101890001B686BB9244B1B68DA6AE36A9A4207D863
:1018A000214B1C6004E0204B1C601368012B36D0D8
:1018B0001F4A136801331360E36A01229A401D49ED
:1018C000086802430A601C4A03EB83039900114431
:1018D0004B68A3609968E1609868211D4160996038
:1018E000E06A83001D18A90055186561515801313F
:1018F000034498001150FFF74FFE0C4B1B686BB16F
:10190000094B1B68DA6AE36A9A4207D20B4B4FF025
:1019100080521A60BFF34F8FBFF36F8F38BDFFF750
:1019200077FFC5E740010020A8000020A0010020AB
:101930004C01002050010020B400002004ED00E024
:101940000F4B1B68D3B110B5FFF704FE0D4BDB68DE
:10195000DC68201D00F0F3FF0B4A1368013B1360A5
:10196000074A1368013B1360FFF716FE2046FFF796
:10197000F3FE034B1B68002BE6D110BD704700BF80
:1019800044010020B80100204001002008B5FFF705
:10199000D7FF064B1B68012BF9D9054B4FF080523E
:1019A0001A60BFF34F8FBFF36F8FF0E7B4000020D2
:1019B00004ED00E070B504460E46244B1D68244B30
:1019C0001868043000F0BBFF50B9214B1B68DA6A7D
:1019D000012303FA02F21F490B6823EA02030B609A
:1019E000B4F1FF3F13D02C44194B1B685C60A54237
:1019F00024D8194B1868164B1968043100F085FF7C
:101A0000164B1B68A34220D9144B1C601DE0002E0E
:101A1000E9D0134A51680E4B1868816018688C68C9
:101A2000C46018688C68043060601868043088608E
:101A30001B685A6113680133136006E0094B18688C
:101A4000034B1968043100F060FF70BDCC01002029
:101A5000A800002050010020AC00002080010020E0
:101A6000A4010020B00000202DE9F04385B0074616
:101A7000884615469946900000F075FFF8B1064675
:101A8000542000F070FF0446A8B10663D4B10023CF
:101A9000039302940D9B01930C9B00934B462A46A3
:101AA00041463846FFF761FE2046FFF7E5FE01207C
:101AB00005B0BDE8F083304600F061FFE6E74FF087
:101AC000FF30F5E74FF0FF30F2E7000000B583B0DC
:101AD0001A4B019300230093802219491948FFF7FC
:101AE000C3FF012809D001280AD0B0F1FF3F1CD064
:101AF000154B1B6803B05DF804FB00F0E9FCF2E74E
:101B00004FF0500383F31188BFF36F8FBFF34F8FF4
:101B10000E4B4FF0FF321A600D4B01221A600D4B35
:101B200000221A60FFF7A8FDE2E74FF0500383F3AD
:101B30001188BFF36F8FBFF34F8FFEE77C0100204A
:101B4000442A00088D19000874000020800100203C
:101B5000A0010020CC010020024A13680133136069
:101B6000704700BF48010020014B1868704700BF54
:101B7000CC010020F8B5514B1B68002B40F0988039
:101B80004F4B1C6801341C60C4B94E4B1B681B686A
:101B900043B14FF0500383F31188BFF36F8FBFF34E
:101BA0004F8FFEE7474A1168474B1868106019606D
:101BB000464A136801331360FFF7BAFD444B1B68B4
:101BC000A34265D90020434B1B68DB6A03EB830308
:101BD0009A00414B9B58012B00D901203F4B1B68B9
:101BE000002B6AD0012068E00120364B1B681B687F
:101BF000002B4FD0334B1B68DB68DB685A6894427C
:101C00004DD35A699968DD688D60D9689D684D60CB
:101C100051681E1DB14245D000215961116801393A
:101C200011609A6A7AB1D9691D6A8D60196ADD6995
:101C30004D60556803F118018D4236D0002199623C
:101C4000116801391160DA6A01219140244D2F6831
:101C500039432960204902EB820295000D446A68ED
:101C60009A609568DD6095686E609660DE6AB20085
:101C70009719BD004F195F614D59013532449600E7
:101C80008D51DA6A134B1B68DB6A9A42ACD2ACE71F
:101C90000020AAE70E4B4FF0FF321A6093E70C4B7F
:101CA0001A6090E7D9685160B6E7196A5160C5E7D4
:101CB0000C4A1368013313600020F8BD480100206E
:101CC000CC010020AC000020B000002084010020E6
:101CD00080010020A8000020B4000020D0010020D6
:101CE000500100208801002038B54B4B1B6843B9D8
:101CF0004FF0500383F31188BFF36F8FBFF34F8F03
:101D0000FEE7FFF727FC444B1A68013A1A601B688C
:101D1000002B7CD1414B1B6853B90024FFF73CFCDE
:101D2000204638BD196A516016E0D968516023E039
:101D300000233B4A1268002A4BD0394BDB68DB6832
:101D40009A6AD969186A8860196AD86948605068BF
:101D500003F118018842E5D0002199621168013928
:101D600011605A699968D8688860D968986848602D
:101D700051681C1DA142D8D0002159611168013958
:101D80001160DA6A01219140264805682943016003
:101D9000254902EB82029000084442689A609068EC
:101DA000D860906844609460DC6AA2001519A800AD
:101DB0000D185D6108580130224494000851D96A19
:101DC0001A4A1268D26A9142B3D3194A01211160AA
:101DD000AFE70BB1FFF7ACFC164B1C6854B1FFF733
:101DE000C9FE10B1124B01221A60013CF7D1114B10
:101DF00000221A600E4B1B685BB10F4B4FF08052F4
:101E00001A60BFF34F8FBFF36F8F012486E7002462
:101E100084E7002482E700BF480100204001002041
:101E20008C01002050010020B4000020A8000020F8
:101E3000D00100208801002004ED00E038B550B149
:101E4000054689B94FF0500383F31188BFF36F8FB4
:101E5000BFF34F8FFEE74FF0500383F31188BFF3BA
:101E60006F8FBFF34F8FFEE71D4B1B6843B14FF0E1
:101E7000500383F31188BFF36F8FBFF34F8FFEE7DB
:101E80000C46FFF769FE174B18682A681444824213
:101E90001CD9A2420ED82C600024FFF725FF38B9C8
:101EA000114B4FF080521A60BFF34F8FBFF36F8F0B
:101EB000204638BDA04202D32C600024EDE72C6000
:101EC0000021201AFFF776FD0124E6E7A24201D89F
:101ED000A04201D22C60F3E72C600024DDE700BFB4
:101EE00048010020CC01002004ED00E0204B1B68DD
:101EF0001BB1204B01221A6070471E4B00221A6052
:101F00001D4B1B68B3FA83F3DBB2C3F11F0303EB72
:101F100083018A0019498A5842B94FF0500383F36C
:101F20001188BFF36F8FBFF34F8FFEE710B41348D4
:101F30009A00D418A10001444C6864684C601A44AB
:101F400091000831084484420AD003EB83039A00CD
:101F50000A4B13445B68DA68094B1A6010BC70477F
:101F600061680648142202FB03025160EDE700BFDE
:101F700048010020D001002050010020B4000020C2
:101F8000A800002040B94FF0500383F31188BFF33D
:101F90006F8FBFF34F8FFEE710B50C46044B1968E7
:101FA000183100F0B2FC01212046FFF703FD10BDFF
:101FB000A8000020E8B170B50E4604464068114BF9
:101FC0001968C861196885680D621D6881681835CF
:101FD0004D601D68183585601B689C62236801335D
:101FE00023600AB14FF0FF3611463046FFF7E2FC9E
:101FF00070BD4FF0500383F31188BFF36F8FBFF3B1
:102000004F8FFEE7A8000020C368DB68002B50D08C
:1020100030B49A6AD969186A8860196AD8694860C0
:10202000516803F11800814201D1196A5160002101
:1020300099621168013911602B4A1268002A44D153
:102040005A699968D8688860D96898684860516802
:102050001C1DA14236D0002159611168013911605F
:10206000DA6A01219140214805682943016020492D
:1020700002EB82029000084442689A609068D8603F
:10208000906844609460DC6AA2001519A8000D18DD
:102090005D6108580130224494000851DA6A154BFA
:1020A0001B68DB6A9A421DD90120134B186030BCB3
:1020B00070474FF0500383F31188BFF36F8FBFF366
:1020C0004F8FFEE7D9685160C5E70C4A5168D96166
:1020D0008C681C628C68606088609A62116801314B
:1020E0001160DBE70020E2E74801002050010020FA
:1020F000B4000020A8000020D00100208C010020A6
:10210000034B1B680360034B1B684360704700BFB1
:1021100084010020CC010020F8B550B1054689B9F2
:102120004FF0500383F31188BFF36F8FBFF34F8FCE
:10213000FEE74FF0500383F31188BFF36F8FBFF3B7
:102140004F8FFEE70C46FFF705FA124B19686868D7
:102150000A1A2368B3F1FF3F1AD02F680E4E366873
:10216000B74201D0884205D993420AD800232360A0
:10217000012402E0002323600124FFF70DFA20462A
:10218000F8BD9B1A23602846FFF7BAFF0024F4E746
:102190000024F2E7CC01002084010020014B012241
:1021A0001A607047D0010020054B1B6833B1054B06
:1021B0001B680BB100207047022070470120704758
:1021C000A001002048010020064B1A6813682BB9B3
:1021D0000123036023B9D368186870470023F8E728
:1021E00000207047D401002008B541600061914291
:1021F0000CD8D21A83699A4201D3012010E0011D44
:10220000094B186800F081FB002009E09A4201D2D6
:10221000994206D2011D054B186800F076FB00209C
:1022200008BD0120FCE700BFD8010020D401002038
:1022300070B504460D46164604E0A3691D44236AA2
:1022400020469847A1692B46324629442046FFF78D
:10225000CBFF0028F1D170BD70B505460E460D4B81
:102260001B68DB68DC68201D00F069FB94F82430F3
:1022700013F0040F07D123F0010384F82430236AFC
:102280002046984770BD324629462046FFF7D0FFCA
:10229000F5E700BFD401002008B505E0DB684FF08A
:1022A000FF311868FFF7D8FF054B1B681A68002A32
:1022B000F4D1044A106802490860136008BD00BFE9
:1022C000D4010020D801002038B50546FFF74CFCAA
:1022D0000446074B1B68834205D800232B60044B40
:1022E0001C60204638BDFFF7D7FF01232B60F6E7BF
:1022F0000402002070B582B006460C46FFF72CFCA5
:1023000001A8FFF7E1FF019B23BB05460CB9B042D2
:1023100017D224B1114B1B681B68CBB9012422468C
:10232000711B0F4B186800F0B9FAFFF7DDFC98B984
:102330000C4B4FF080521A60BFF34F8FBFF36F8F7B
:102340000AE0FFF7D1FC29463046FFF785FF03E09E
:102350000024E4E7FFF7C8FC02B070BDD8010020FC
:102360000802002004ED00E030B585B0002201A98C
:10237000394B186800F0B6F900286AD0019B002B91
:10238000F4DB039C636913B1201D00F0D8FA6846A2
:10239000FFF79AFF0546019B013B082BE6D8DFE8D3
:1023A00003F005052A314A05052A310094F8243046
:1023B00043F0010384F824300299A0690B462A46B1
:1023C00001442046FFF710FF0028CFD094F82430B6
:1023D00013F0040F07D123F0010384F82430236A9B
:1023E00020469847C2E7A3692A4602991944204625
:1023F000FFF71EFFF3E794F8243023F0010384F87D
:102400002430B3E794F8243043F0010384F82430F7
:102410000299A16131B10346024601442046FFF70B
:10242000E3FEA3E74FF0500383F31188BFF36F8FF0
:10243000BFF34F8FFEE794F8243013F0020F04D05F
:1024400023F0010384F8243090E7204600F097FA47
:102450008CE705B030BD00BF0802002000B583B096
:1024600001A8FFF7B1FE0199FFF744FFFFF77CFFDA
:10247000F6E7000038B5FFF76DF80F4B1B6813B196
:10248000FFF78AF838BD0D4D284600F030FA0C4CA5
:10249000204600F02CFA0B4B1D600B4B1C600022F9
:1024A0000C210A2000F0F2F8034B18600028E7D056
:1024B000064900F0C3F9E3E708020020DC01002030
:1024C000F0010020D4010020D80100204C2A00088F
:1024D00000B583B0FFF7CEFF0C4B1B6853B10C4B1C
:1024E000019301230093002302220A490A48FFF7BF
:1024F000BBFA40B94FF0500383F31188BFF36F8FDD
:10250000BFF34F8FFEE703B05DF804FB0802002025
:102510000C020020542A00085D24000810B504466F
:10252000FFF718F8A36B23B10024FFF735F8204616
:1025300010BD0124F9E7026C72B110B5C3681344F1
:10254000C3608468A34201D30368C3600C46C168BA
:102550002046FDF7C5FE10BD704738B50546FEF7AD
:10256000F9FF95F8454064B203E0FFF717FE013C20
:1025700064B2002C08DD6B6A33B105F12400FFF76B
:1025800043FD0028F3D0F0E7FF2385F84530FFF73F
:1025900003F8FEF7DFFF95F8444064B203E0FFF76D
:1025A000FDFD013C64B2002C08DD2B6933B105F15F
:1025B0001000FFF729FD0028F3D0F0E7FF2385F88E
:1025C0004430FEF7E9FF38BD38B540B94FF050034D
:1025D00083F31188BFF36F8FBFF34F8FFEE704467D
:1025E000C36B2BB1026C0020A2FB03234BB950B18B
:1025F0004FF0500383F31188BFF36F8FBFF34F8FFA
:10260000FEE70120F3E70D46FEF7A4FF2168E26B29
:10261000236C03FB0210A0600020A0636160013AFC
:1026200002FB0313E360FF2384F8443084F8453051
:1026300095B9236963B104F11000FFF7E5FC38B1E7
:102640000A4B4FF080521A60BFF34F8FBFF36F8F6A
:10265000FEF7A2FF012038BD04F1100000F047F999
:1026600004F1240000F043F9F2E700BF04ED00E0BC
:1026700010B5029B0C4639B91B60D8631C6401215C
:102680001846FFF7A1FF10BD1A60F6E7F0B583B05A
:10269000F8B103460020A1FB0345C5B9C8B901FB49
:1026A00003F010F1490F14D81C4617460D46483068
:1026B00000F059F9064638B100903B4600F1480257
:1026C00029462046FFF7D4FF304603B0F0BD012075
:1026D000E4E74FF0500383F31188BFF36F8FBFF32C
:1026E0004F8FFEE7F0B585B0019260B1044699B90D
:1026F000036C8BB14FF0500383F31188BFF36F8FDE
:10270000BFF34F8FFEE74FF0500383F31188BFF301
:102710006F8FBFF34F8FFEE70F46FFF745FD50B9B0
:10272000019B53B14FF0500383F31188BFF36F8FB8
:10273000BFF34F8FFEE700263EE000263CE039461F
:102740002046FFF7F8FE013DA563236923B9FEF794
:1027500023FF012005B0F0BD04F11000FFF754FC89
:102760000028F4D0344B4FF080521A60BFF34F8FE3
:10277000BFF36F8FEBE7FEF70FFF0020EAE702A839
:10278000FFF7BEFC012621E0002384F8443029E055
:10279000002384F845302BE02046FFF7DEFEFFF7EC
:1027A000A3FA09E02046FFF7D8FEFFF79DFA20467E
:1027B000FFF7B4FE00283DD1FEF7CCFEA56B002D3F
:1027C000BDD1019B002BD6D0002ED8D0FEF7E4FE61
:1027D000FFF7C2F9FEF7BEFE94F844305BB2B3F1E6
:1027E000FF3FD1D094F845305BB2B3F1FF3FCFD07B
:1027F000FEF7D2FE01A902A8FFF78EFC0028D1D176
:102800002046FFF78BFE0028C6D0019904F1240072
:10281000FFF7B8FB2046FFF7A0FEFFF765FA002898
:10282000CAD1054B4FF080521A60BFF34F8FBFF3F0
:102830006F8FC1E700208DE704ED00E020B110B4F8
:10284000044631BB10BC70474FF0500383F311882E
:10285000BFF36F8FBFF34F8FFEE70F4B03EBC20346
:10286000002BEFD019605C60ECE70132072AF7D843
:10287000094800EBC2004068A042EED0002BF4D122
:10288000054850F832000028EFD1034B03EBC20398
:10289000EBE700231A46E9E72802002070B504465A
:1028A0000D461646FEF756FE94F844305BB2B3F17F
:1028B000FF3F0DD094F845305BB2B3F1FF3F0BD032
:1028C000FEF76AFEA36B5BB12046FFF746FE70BDC4
:1028D000002384F84430EDE7002384F84530EFE727
:1028E0003246294604F12400FFF764FBECE700F1CF
:1028F000080343604FF0FF328260C360036100232E
:102900000360704700230361704730B40D68B5F170
:10291000FF3F02D000F1080202E0026904E01A461B
:1029200053681C68AC42FAD953684B6099608A605E
:102930005160086103680133036030BC704703696C
:102940004268816891608268416851605A68824239
:1029500006D0002202611A68013A1A6018687047AE
:1029600082685A60F5E710B50446FFF7F5F820468F
:10297000FDF7A6FC0446FFF7B7F9204610BD48B1A5
:1029800010B50446FFF7E8F82046FDF7A1FCFFF775
:10299000ABF910BD704700000C480D490D4A0023EB
:1029A00002E0D458C4500433C4188C42F9D30A4A04
:1029B0000A4C002301E013600432A242FBD3FEF76D
:1029C0006FFDFDF759FCFDF779FE70470000002010
:1029D00078000020642A0008780000206C020020A3
:1029E000FEE70000F8B500BFF8BC08BC9E46704783
:0C29F000F8B500BFF8BC08BC9E4670475C
:1029FC0002030405060708090A0B0C0D0E0F101034
:102A0C000102000002030405060708090A0B0C0D5D
:102A1C000E0F1010010200005461736B2031000086
:102A2C000000000000000000010203040607080972
:102A3C00000000000102030449444C450000000062
:102A4C00546D725100000000546D72205376630077
:042A5C005902000813
:042A60003102000837
:102A6400040000200000000000000000000000003E
:102A74000000000000000000000000000000000052
:102A84000000000000000000000000000000000042
:102A94000000000000000000000000000000000032
:102AA4000000000000000000000000000000000022
:102AB4000000000000000000000000000000000012
:102AC4000000000001000000100000000024F400D9
:082AD400AAAAAAAA060000004C
:04000005080029992D
:00000001FF
