:020000040800F2
:1000000000000120F5110008F5030008F7030008BF
:10001000F9030008FB030008FD03000800000000CE
:10002000000000000000000000000000FF030008C6
:100030000104000800000000030400080504000893
:100040003D1200083D1200083D1200083D12000854
:100050003D1200083D1200083D1200083D12000844
:100060003D1200083D1200083D1200083D12000834
:100070003D1200083D1200083D1200083D12000824
:100080003D1200083D1200083D1200083D12000814
:100090003D1200083D1200083D1200083D12000804
:1000A0003D1200083D1200083D1200083D120008F4
:1000B0003D1200083D1200083D1200083D120008E4
:1000C0003D1200083D1200083D1200083D120008D4
:1000D0003D1200083D1200083D1200083D120008C4
:1000E0003D1200083D1200083D1200083D120008B4
:1000F0003D1200083D1200083D1200083D120008A4
:100100003D1200083D1200083D1200083D12000893
:100110003D1200083D1200083D1200083D12000883
:100120003D1200083D1200083D1200083D12000873
:1001300000000000000000000000000000000000BF
:1001400000000000000000000000000000000000AF
:10015000000000000000000000000000000000009F
:10016000000000000000000000000000000000008F
:10017000000000000000000000000000000000007F
:10018000000000000000000000000000000000006F
:10019000000000000000000000000000000000005F
:1001A000000000000000000000000000000000004F
:1001B000000000000000000000000000000000003F
:1001C000000000000000000000000000000000002F
:1001D000000000000000000000000000000000001F
:0401E0005FF8E0F1F3
:1001E4000348044B834202D0034B03B118477047C2
:1001F4000C0000200C000020000000000548064907
:10020400091A891001EBD171491002D0034B03B1D3
:10021400184770470C0000200C000020000000006C
:1002240010B5064C237843B9FFF7DAFF044B13B13A
:100234000448AFF300800123237010BD0C0000209C
:10024400000000004012000808B5044B1BB104492B
:100254000448AFF30080BDE80840CFE70000000089
:10026400100000204012000870B50D4E0D4D761B95
:10027400B61006D00024013455F8043B9847A64232
:10028400F9D1094E094D00F0D9FF761BB61006D0FE
:100294000024013455F8043B9847A642F9D170BDB7
:1002A40098120008981200089C120008981200087E
:1002B40030B587B000240294039404940594134B3E
:1002C4009A6942F010029A619A6902F0100200924F
:1002D400009A9A6942F004029A619B6903F004034C
:1002E4000193019B0A4D22464021284600F00CFF51
:1002F400402302930123039304940223059302A948
:10030400284600F007FE07B030BD00BF00100240D1
:100314000010014072B6FEE708B50748074B0360BA
:100324004FF0FF3343604FF48073836000F0FCF8B8
:1003340000B908BDFFF7EEFF2800002000280040A8
:1003440000B597B000230E9311931293079308936B
:1003540009930A930B9301930293039304930593D4
:10036400069305230C934FF480330D9301220F92CF
:1003740010920222139214934FF4E01315930CA8D5
:1003840000F0A8F9C8B90F230793022108910023AC
:1003940009934FF480620A920B9307A800F0DAFBEA
:1003A40068B9012301934FF48073029301A800F00C
:1003B4009BFC30B917B05DF804FBFFF7ABFFFFF708
:1003C400A9FFFFF7A7FF000008B500F035F9FFF714
:1003D400B7FFFFF76DFFFFF79FFF4021034800F0D1
:1003E40099FE4FF4FA7000F04BF9F6E70010014063
:1003F400FEE7FEE7FEE7FEE7FEE77047704770475B
:1004040008B500F02BF908BD82B00E4B9A6942F092
:1004140001029A619A6902F001020092009ADA6973
:1004240042F08052DA61DB6903F080530193019B4F
:10043400054A536823F0E06343F00073536002B04D
:10044400704700BF001002400000014002680C4BDE
:100454009A4200D0704700B583B000F0C1FE094B4A
:10046400DA6942F00062DA61DB6903F00063019348
:10047400019B054B01221A6003B05DF804FB00BF29
:1004840000280040001002403C04424238B50446B3
:1004940000F0F0F8054623685A6812F0200F07D1DF
:1004A40000F0E8F8401BB0F57A7FF4D9032004E0AB
:1004B4005A6842F010025A60002038BD38B504462C
:1004C4000268536823F01003536000F0D3F8054624
:1004D40023685B6813F0200F07D100F0CBF8401BB2
:1004E400B0F57A7FF4D9032000E0002038BDC0B114
:1004F40038B504460268536823F00803536000F0DB
:10050400B9F8054623685B6813F0080F07D100F0BB
:10051400B1F8401BB0F57A7FF4D9032000E0002045
:1005240038BD01207047000000285AD010B5044699
:10053400437C53B1022363742046FFF7D8FF40B1D4
:10054400042363740123184610BD0374FFF77EFF70
:10055400F0E72046FFF79AFF002830D1226853685D
:1005640023F007035360A36823B11F4A136B23F0DE
:10057400010313631C4AD36A23F46073A1680B4319
:10058400D3626268B2F1FF3F1DD021688B6823F00B
:100594000F0343EA12438B602168CB681B0C1B04D6
:1005A40092B21343CB602046FFF788FF0346A0B9FD
:1005B4000022E27301226273A2736274C3E704230C
:1005C40063740123BFE7012000F018FC08B1421E48
:1005D400DBE7042363740123B5E704236374012375
:1005E400B1E7012318467047006C004010B504467B
:1005F4000E4B18784FF47A73B3FBF0F30C4A10687F
:10060400B0FBF3F000F0D6FD68B90F2C01D901203E
:100614000AE0002221464FF0FF3000F097FD054B21
:100624001C60002000E0012010BD00BF000000207D
:10063400080000200400002008B5074A136843F0AE
:1006440010031360032000F06FFD0F20FFF7CEFFAF
:10065400FFF7DAFE002008BD00200240034A1168BB
:10066400034B1B780B441360704700BF3C00002011
:1006740000000020014B1868704700BF3C000020B8
:1006840038B50446FFF7F6FF0546B4F1FF3F02D044
:10069400044B1B781C44FFF7EDFF401BA042FAD328
:1006A40038BD00BF0000002082B0084B1B68084A18
:1006B400A2FB03235B0A00FB03F0019000BF019B34
:1006C4005A1E0192002BF9D102B070470800002095
:1006D400D34D6210002800F0F58170B582B0044655
:1006E400036813F0010F2CD0AB4B5B6803F00C03D1
:1006F400042B1DD0A84B5B6803F00C03082B12D00D
:100704006368B3F5803F41D0002B55D103F180439A
:1007140003F504331A6822F480321A601A6822F44A
:1007240080221A6037E09C4B5B6813F4803FE7D06B
:10073400994B1B6813F4003F03D06368002B00F04F
:10074400C381236813F0020F76D0934B5B6813F0D8
:100754000C0F5FD0904B5B6803F00C03082B54D054
:100764002369002B00F08A808C4B01221A60FFF76A
:1007740081FF0546884B1B6813F0020F75D1FFF704
:1007840079FF401B0228F5D90320A0E1824A1368AF
:1007940043F480331360636843B3FFF76BFF05468C
:1007A4007D4B1B6813F4003FCBD1FFF763FF401B65
:1007B4006428F5D903208AE1B3F5A02F09D0764B3C
:1007C4001A6822F480321A601A6822F480221A60AD
:1007D400E1E703F18043A3F53C331A6842F4802235
:1007E4001A601A6842F480321A60D4E7FFF742FFB5
:1007F4000546694B1B6813F4003FA2D0FFF73AFF8C
:10080400401B6428F5D9032061E1634B5B6813F452
:10081400803FA5D1604B1B6813F0020F04D02369FD
:10082400012B01D0012052E15B4A136823F0F80345
:10083400616943EAC1031360236813F0080F32D0DF
:10084400A369002B5BD0564B01221A60FFF712FFFD
:100854000546514B5B6A13F0020F21D1FFF70AFFE3
:10086400401B0228F5D9032031E14B4A136823F0D9
:10087400F803616943EAC1031360DDE7474B0022D3
:100884001A60FFF7F7FE0546434B1B6813F0020F8F
:10089400D2D0FFF7EFFE401B0228F5D9032016E162
:1008A4000120FFF701FF236813F0040F00F0988084
:1008B400394BDB6913F0805F33D1374BDA6942F08F
:1008C4008052DA61DB6903F080530193019B0125B7
:1008D400344B1B6813F4807F25D0E368012B36D09A
:1008E400002B4CD103F1804303F504331A6A22F040
:1008F40001021A621A6A22F004021A622CE0284BDE
:1009040000221A60FFF7B6FE0546234B5B6A13F01C
:10091400020FC8D0FFF7AEFE401B0228F5D9032012
:10092400D5E00025D4E71F4A136843F480731360AD
:10093400FFF7A0FE06461B4B1B6813F4807FCCD147
:10094400FFF798FE801B6428F5D90320BFE0124A04
:10095400136A43F001031362E3687BB3FFF78AFE73
:1009640006460D4B1B6A13F0020F38D1FFF782FEC7
:10097400801B41F288339842F3D90320A7E0052B6A
:1009840012D0054B1A6A22F001021A621A6A22F086
:1009940004021A62E0E700BF001002400000424275
:1009A40080044242007000404C4B1A6A42F0040238
:1009B4001A621A6A42F001021A62CDE7FFF75AFE80
:1009C4000646464B1B6A13F0020F08D0FFF752FE8F
:1009D400801B41F288339842F3D9032077E0E5B9CC
:1009E400E369002B72D03D4A526802F00C02082AD7
:1009F40056D0022B17D03A4B00221A60FFF73AFE6A
:100A04000446364B1B6813F0007F47D0FFF732FED5
:100A1400001B0228F5D9032059E0304AD36923F09A
:100A24008053D361DCE72E4B00221A60FFF722FECD
:100A340005462A4B1B6813F0007F06D0FFF71AFE09
:100A4400401B0228F5D9032041E0236AB3F5803F17
:100A54001AD022494B6823F47413226A606A024351
:100A640013434B601E4B01221A60FFF703FE04463A
:100A74001A4B1B6813F0007F0ED1FFF7FBFD001B20
:100A84000228F5D9032022E0144A536823F40033E2
:100A9400A1680B435360DCE7002018E0002016E057
:100AA400012B16D00D4B5B6803F48031226A91420E
:100AB40001D001200BE003F47013626A93420AD060
:100AC400012004E001207047012000E0002002B072
:100AD40070BD0120FBE70020F9E700BF00100240D1
:100AE4006000424210B487B0164C94E80F000DF138
:100AF400180C0CE90F00238AADF80430124B5B6824
:100B040003F00C02082A1AD1C3F38342624412F898
:100B1400102C13F4803F05D10C4800FB02F007B001
:100B240010BC7047084B5B68C3F34043634413F83D
:100B3400143C074800FB02F0B0FBF3F0EFE7044875
:100B4400EDE700BF581200080010024000093D0004
:100B540000127A00002800F0A38070B50446524BBE
:100B64001B6803F007038B420CD24F4A136823F02F
:100B740007030B431360136803F007038B4201D090
:100B8400012070BD236813F0020F17D013F0040F77
:100B940004D0464A536843F4E0635360236813F077
:100BA400080F04D0414A536843F4605353603F4AEA
:100BB400536823F0F003A068034353600D46236891
:100BC40013F0010F31D06368012B20D0022B25D004
:100BD400364A126812F0020F64D034494A6822F08F
:100BE400030213434B60FFF745FD06462F4B5B683A
:100BF40003F00C036268B3EB820F16D0FFF73AFDE3
:100C0400801B41F288339842F0D90320B9E7274A80
:100C1400126812F4003FE0D10120B2E7234A1268BF
:100C240012F0007FD9D10120ABE71F4B1B6803F002
:100C34000703AB420CD91C4A136823F007032B4368
:100C44001360136803F00703AB4201D0012098E757
:100C5400236813F0040F06D0144A536823F4E063A6
:100C6400E1680B435360236813F0080F07D00F4A61
:100C7400536823F46053216943EAC1035360FFF7C7
:100C840031FF0A4B5B68C3F30313094AD35CD840B2
:100C9400084B1860084B1868FFF7A8FC002070E7A1
:100CA4000120704701206CE7002002400010024040
:100CB400801200080800002004000020014B18687E
:100CC400704700BF0800002008B5FFF7F7FF044B8A
:100CD4005B68C3F3C223034AD35CD84008BD00BF9A
:100CE400001002409012000870B582B004460368F8
:100CF40013F0010F34D03E4BDB6913F0805F48D111
:100D04003B4BDA6942F08052DA61DB6903F08053CD
:100D14000193019B0125374B1B6813F4807F3AD064
:100D2400334B1B6A13F4407311D0626802F44072AF
:100D34009A420CD02E4A136A23F440702E4901269D
:100D44000E6000260E60106213F0010F37D1284A9E
:100D5400136A23F4407361680B431362002D3FD17F
:100D6400236813F0020F06D0214A536823F440434A
:100D7400A1680B435360236813F0100F35D01C4A4D
:100D8400536823F4800361690B435360002002B06D
:100D940070BD0025BFE7174A136843F480731360DE
:100DA400FFF768FC0646134B1B6813F4807FB7D12A
:100DB400FFF760FC801B6428F5D90320E7E7FFF701
:100DC40059FC06460A4B1B6A13F0020FBFD1FFF70A
:100DD40051FC801B41F288339842F3D90320D6E7B3
:100DE400D36923F08053D361BAE70020CFE700BF73
:100DF40000100240007000404004424230B587B009
:100E040005463F4C94E80F000DF1180C0CE90F0057
:100E1400238AADF80430681E0F2866D8DFE800F096
:100E2400395A653265656536656565656565650864
:100E3400344B5A681B6813F0807F58D0C2F3834345
:100E440006A90B4413F8100C12F4803F16D02D4B56
:100E54005B68C3F340430B4413F8142C2A4BB3FBD5
:100E6400F2F300FB03F0274B5B6813F4800F0BD104
:100E74004000264BA3FB0030400805E0244B03FB55
:100E840000F0F0E7FFF72EFE07B030BDFFF72AFEB3
:100E9400FAE71C4B1B6A40F202321A40B2F5817F1A
:100EA40027D003F44073B3F5007F04D0B3F5407F3B
:100EB40009D00020E8E7134A526A12F0020FF5D075
:100EC40049F64040E0E70F4B1B6813F4003F13D191
:100ED4000020D9E7FFF7F8FE0A4B5B68C3F38133C0
:100EE40001335B00B0FBF3F0CEE70020CCE7002039
:100EF400CAE74FF40040C7E74FF22440C4E700BFFD
:100F04006C1200080010024000127A00ABAAAAAAD0
:100F140000093D00F0B482B000263246ABE0002D5B
:100F240063D0012D00D1CE68FF2B72D88446FF2BED
:100F340072D89500DCF800400F27AF4024EA07047C
:100F440006FA05F52C43CCF800404C6814F0805F99
:100F540000F09080664CA56945F00105A561A4697F
:100F640004F001040194019C9508AF1C614C54F8F1
:100F740027C002F00304A7000F24BC402CEA040C91
:100F84005D4CA0424ED004F58064A04200F08C80F9
:100F940004F58064A04200F0898004F58064A042D6
:100FA40000F0868004F58064A04200F0838004F59C
:100FB4008064A04234D0062435E0504FBD4214D0A2
:100FC4000BD94F4FBD4210D007F58037BD420CD02E
:100FD400A7F58017BD42A7D107E0A7F58017BD424A
:100FE40003D007F58037BD429ED18D687DB1012DB8
:100FF40008D04461082697E7CE68083694E7CE689F
:101004000C3691E7046108268EE700268CE7042657
:101014008AE700F1040C8AE7A2F10805AD0089E72C
:10102400052400E00024BC4044EA0C040235314F9E
:1010340047F825404C6814F4803F3DD0314D2C686E
:101044001C432C604C6814F4003F3BD02D4D6C685D
:101054001C436C604C6814F4801F39D0294DAC6873
:101064001C43AC604C6814F4001F37D0254DEC6869
:101074002343EB6001320B6833FA02F434D00124C9
:10108400944023409C42F5D14D68122DB7D094D89A
:10109400022DB1D07FF643AF032DB6D0112D7FF4CE
:1010A40043AFCE6804363FE70124BCE70224BAE725
:1010B4000324B8E70424B6E7124D2C6824EA030499
:1010C4002C60BFE70F4D6C6824EA03046C60C1E731
:1010D4000C4DAC6824EA0304AC60C3E7094DEC682A
:1010E40024EA0303EB60C5E702B0F0BC704700BF1D
:1010F40000100240000001400008014000002110DF
:10110400000031100004014012B909040161704764
:1011140001617047C36801EA030221EA030141EA5D
:101124000241016170470000074AD36823F4E06379
:101134001B041B0C000200F4E060184340F0BF6085
:1011440040F40030D060704700ED00E030B4174B3D
:10115400DB68C3F30223C3F10704042C28BF04246F
:101164001D1D062D18D9033B4FF0FF3505FA04F475
:1011740021EA0401994005FA03F322EA030319431F
:1011840000280BDB0901C9B200F1604000F56140A1
:1011940080F8001330BC70470023E5E700F00F002F
:1011A4000901C9B2024B1954F4E700BF00ED00E095
:1011B40014ED00E00138B0F1807F0AD2064B58608C
:1011C400064AF02182F823100020986007221A6052
:1011D40070470120704700BF10E000E000ED00E020
:1011E400014B01221A60704720000E427047000034
:1011F4000C480D490D4A002302E0D458C45004336E
:10120400C4188C42F9D30A4A0A4C002301E0136043
:101214000432A242FBD3FFF7E9FFFFF725F8FFF7FB
:10122400D3F87047000000200C000020A012000832
:101234000C00002040000020FEE70000F8B500BFCD
:10124400F8BC08BC9E467047F8B500BFF8BC08BCA3
:041254009E467047FB
:1012580002030405060708090A0B0C0D0E0F1010EF
:101268000102000002030405060708090A0B0C0D19
:101278000E0F101001020000000000000000000026
:101288000102030406070809000000000102030424
:041298004D020008FB
:04129C00250200081F
:0C12A00001000000100000000024F40019
:04000005080011F5E9
:00000001FF
